{
  "_format": "hh-sol-artifact-1",
  "contractName": "ChainEd",
  "sourceName": "contracts/ChainEd.sol",
  "abi": [
    {
      "inputs": [],
      "stateMutability": "nonpayable",
      "type": "constructor"
    },
    {
      "anonymous": false,
      "inputs": [
        {
          "indexed": true,
          "internalType": "address",
          "name": "owner",
          "type": "address"
        },
        {
          "indexed": true,
          "internalType": "address",
          "name": "approved",
          "type": "address"
        },
        {
          "indexed": true,
          "internalType": "uint256",
          "name": "tokenId",
          "type": "uint256"
        }
      ],
      "name": "Approval",
      "type": "event"
    },
    {
      "anonymous": false,
      "inputs": [
        {
          "indexed": true,
          "internalType": "address",
          "name": "owner",
          "type": "address"
        },
        {
          "indexed": true,
          "internalType": "address",
          "name": "operator",
          "type": "address"
        },
        {
          "indexed": false,
          "internalType": "bool",
          "name": "approved",
          "type": "bool"
        }
      ],
      "name": "ApprovalForAll",
      "type": "event"
    },
    {
      "anonymous": false,
      "inputs": [
        {
          "indexed": true,
          "internalType": "address",
          "name": "grantedBy",
          "type": "address"
        },
        {
          "indexed": true,
          "internalType": "address",
          "name": "grantedTo",
          "type": "address"
        },
        {
          "indexed": true,
          "internalType": "uint256",
          "name": "tokenId",
          "type": "uint256"
        },
        {
          "indexed": false,
          "internalType": "string",
          "name": "uri",
          "type": "string"
        }
      ],
      "name": "CertificateGenerated",
      "type": "event"
    },
    {
      "anonymous": false,
      "inputs": [
        {
          "indexed": true,
          "internalType": "address",
          "name": "studentAddr",
          "type": "address"
        },
        {
          "indexed": true,
          "internalType": "string",
          "name": "subject",
          "type": "string"
        },
        {
          "indexed": false,
          "internalType": "int256",
          "name": "grade",
          "type": "int256"
        }
      ],
      "name": "GradeAdded",
      "type": "event"
    },
    {
      "anonymous": false,
      "inputs": [
        {
          "indexed": true,
          "internalType": "bytes32",
          "name": "role",
          "type": "bytes32"
        },
        {
          "indexed": true,
          "internalType": "bytes32",
          "name": "previousAdminRole",
          "type": "bytes32"
        },
        {
          "indexed": true,
          "internalType": "bytes32",
          "name": "newAdminRole",
          "type": "bytes32"
        }
      ],
      "name": "RoleAdminChanged",
      "type": "event"
    },
    {
      "anonymous": false,
      "inputs": [
        {
          "indexed": true,
          "internalType": "bytes32",
          "name": "role",
          "type": "bytes32"
        },
        {
          "indexed": true,
          "internalType": "address",
          "name": "account",
          "type": "address"
        },
        {
          "indexed": true,
          "internalType": "address",
          "name": "sender",
          "type": "address"
        }
      ],
      "name": "RoleGranted",
      "type": "event"
    },
    {
      "anonymous": false,
      "inputs": [
        {
          "indexed": true,
          "internalType": "bytes32",
          "name": "role",
          "type": "bytes32"
        },
        {
          "indexed": true,
          "internalType": "address",
          "name": "account",
          "type": "address"
        },
        {
          "indexed": true,
          "internalType": "address",
          "name": "sender",
          "type": "address"
        }
      ],
      "name": "RoleRevoked",
      "type": "event"
    },
    {
      "anonymous": false,
      "inputs": [
        {
          "indexed": true,
          "internalType": "address",
          "name": "studentAddr",
          "type": "address"
        },
        {
          "indexed": false,
          "internalType": "string",
          "name": "studentName",
          "type": "string"
        }
      ],
      "name": "StudentAdded",
      "type": "event"
    },
    {
      "anonymous": false,
      "inputs": [
        {
          "indexed": true,
          "internalType": "address",
          "name": "from",
          "type": "address"
        },
        {
          "indexed": true,
          "internalType": "address",
          "name": "to",
          "type": "address"
        },
        {
          "indexed": true,
          "internalType": "uint256",
          "name": "tokenId",
          "type": "uint256"
        }
      ],
      "name": "Transfer",
      "type": "event"
    },
    {
      "inputs": [],
      "name": "ADMIN_ROLE",
      "outputs": [
        {
          "internalType": "bytes32",
          "name": "",
          "type": "bytes32"
        }
      ],
      "stateMutability": "view",
      "type": "function"
    },
    {
      "inputs": [],
      "name": "DEFAULT_ADMIN_ROLE",
      "outputs": [
        {
          "internalType": "bytes32",
          "name": "",
          "type": "bytes32"
        }
      ],
      "stateMutability": "view",
      "type": "function"
    },
    {
      "inputs": [
        {
          "internalType": "address",
          "name": "to",
          "type": "address"
        },
        {
          "internalType": "uint256",
          "name": "tokenId",
          "type": "uint256"
        }
      ],
      "name": "approve",
      "outputs": [],
      "stateMutability": "nonpayable",
      "type": "function"
    },
    {
      "inputs": [
        {
          "internalType": "address",
          "name": "owner",
          "type": "address"
        }
      ],
      "name": "balanceOf",
      "outputs": [
        {
          "internalType": "uint256",
          "name": "",
          "type": "uint256"
        }
      ],
      "stateMutability": "view",
      "type": "function"
    },
    {
      "inputs": [
        {
          "internalType": "address",
          "name": "account",
          "type": "address"
        }
      ],
      "name": "enrollAdmin",
      "outputs": [],
      "stateMutability": "nonpayable",
      "type": "function"
    },
    {
      "inputs": [
        {
          "internalType": "address",
          "name": "_student",
          "type": "address"
        },
        {
          "internalType": "string",
          "name": "_name",
          "type": "string"
        },
        {
          "internalType": "uint256",
          "name": "_nationalId",
          "type": "uint256"
        }
      ],
      "name": "enrollStudent",
      "outputs": [],
      "stateMutability": "nonpayable",
      "type": "function"
    },
    {
      "inputs": [
        {
          "internalType": "address",
          "name": "studentAddress",
          "type": "address"
        },
        {
          "internalType": "string",
          "name": "tokenURI",
          "type": "string"
        }
      ],
      "name": "generateNFTCertificate",
      "outputs": [
        {
          "internalType": "uint256",
          "name": "",
          "type": "uint256"
        }
      ],
      "stateMutability": "nonpayable",
      "type": "function"
    },
    {
      "inputs": [
        {
          "internalType": "uint256",
          "name": "tokenId",
          "type": "uint256"
        }
      ],
      "name": "getApproved",
      "outputs": [
        {
          "internalType": "address",
          "name": "",
          "type": "address"
        }
      ],
      "stateMutability": "view",
      "type": "function"
    },
    {
      "inputs": [
        {
          "internalType": "bytes32",
          "name": "role",
          "type": "bytes32"
        }
      ],
      "name": "getRoleAdmin",
      "outputs": [
        {
          "internalType": "bytes32",
          "name": "",
          "type": "bytes32"
        }
      ],
      "stateMutability": "view",
      "type": "function"
    },
    {
      "inputs": [
        {
          "internalType": "address",
          "name": "_student",
          "type": "address"
        },
        {
          "internalType": "int256",
          "name": "_grade",
          "type": "int256"
        },
        {
          "internalType": "string",
          "name": "subjectName",
          "type": "string"
        }
      ],
      "name": "gradeStudent",
      "outputs": [],
      "stateMutability": "nonpayable",
      "type": "function"
    },
    {
      "inputs": [
        {
          "internalType": "bytes32",
          "name": "role",
          "type": "bytes32"
        },
        {
          "internalType": "address",
          "name": "account",
          "type": "address"
        }
      ],
      "name": "grantRole",
      "outputs": [],
      "stateMutability": "nonpayable",
      "type": "function"
    },
    {
      "inputs": [
        {
          "internalType": "bytes32",
          "name": "role",
          "type": "bytes32"
        },
        {
          "internalType": "address",
          "name": "account",
          "type": "address"
        }
      ],
      "name": "hasRole",
      "outputs": [
        {
          "internalType": "bool",
          "name": "",
          "type": "bool"
        }
      ],
      "stateMutability": "view",
      "type": "function"
    },
    {
      "inputs": [
        {
          "internalType": "address",
          "name": "owner",
          "type": "address"
        },
        {
          "internalType": "address",
          "name": "operator",
          "type": "address"
        }
      ],
      "name": "isApprovedForAll",
      "outputs": [
        {
          "internalType": "bool",
          "name": "",
          "type": "bool"
        }
      ],
      "stateMutability": "view",
      "type": "function"
    },
    {
      "inputs": [],
      "name": "name",
      "outputs": [
        {
          "internalType": "string",
          "name": "",
          "type": "string"
        }
      ],
      "stateMutability": "view",
      "type": "function"
    },
    {
      "inputs": [
        {
          "internalType": "uint256",
          "name": "tokenId",
          "type": "uint256"
        }
      ],
      "name": "ownerOf",
      "outputs": [
        {
          "internalType": "address",
          "name": "",
          "type": "address"
        }
      ],
      "stateMutability": "view",
      "type": "function"
    },
    {
      "inputs": [
        {
          "internalType": "bytes32",
          "name": "role",
          "type": "bytes32"
        },
        {
          "internalType": "address",
          "name": "account",
          "type": "address"
        }
      ],
      "name": "renounceRole",
      "outputs": [],
      "stateMutability": "nonpayable",
      "type": "function"
    },
    {
      "inputs": [
        {
          "internalType": "bytes32",
          "name": "role",
          "type": "bytes32"
        },
        {
          "internalType": "address",
          "name": "account",
          "type": "address"
        }
      ],
      "name": "revokeRole",
      "outputs": [],
      "stateMutability": "nonpayable",
      "type": "function"
    },
    {
      "inputs": [
        {
          "internalType": "address",
          "name": "from",
          "type": "address"
        },
        {
          "internalType": "address",
          "name": "to",
          "type": "address"
        },
        {
          "internalType": "uint256",
          "name": "tokenId",
          "type": "uint256"
        }
      ],
      "name": "safeTransferFrom",
      "outputs": [],
      "stateMutability": "nonpayable",
      "type": "function"
    },
    {
      "inputs": [
        {
          "internalType": "address",
          "name": "from",
          "type": "address"
        },
        {
          "internalType": "address",
          "name": "to",
          "type": "address"
        },
        {
          "internalType": "uint256",
          "name": "tokenId",
          "type": "uint256"
        },
        {
          "internalType": "bytes",
          "name": "_data",
          "type": "bytes"
        }
      ],
      "name": "safeTransferFrom",
      "outputs": [],
      "stateMutability": "nonpayable",
      "type": "function"
    },
    {
      "inputs": [
        {
          "internalType": "address",
          "name": "operator",
          "type": "address"
        },
        {
          "internalType": "bool",
          "name": "approved",
          "type": "bool"
        }
      ],
      "name": "setApprovalForAll",
      "outputs": [],
      "stateMutability": "nonpayable",
      "type": "function"
    },
    {
      "inputs": [
        {
          "internalType": "bytes4",
          "name": "interfaceId",
          "type": "bytes4"
        }
      ],
      "name": "supportsInterface",
      "outputs": [
        {
          "internalType": "bool",
          "name": "",
          "type": "bool"
        }
      ],
      "stateMutability": "view",
      "type": "function"
    },
    {
      "inputs": [],
      "name": "symbol",
      "outputs": [
        {
          "internalType": "string",
          "name": "",
          "type": "string"
        }
      ],
      "stateMutability": "view",
      "type": "function"
    },
    {
      "inputs": [
        {
          "internalType": "uint256",
          "name": "tokenId",
          "type": "uint256"
        }
      ],
      "name": "tokenURI",
      "outputs": [
        {
          "internalType": "string",
          "name": "",
          "type": "string"
        }
      ],
      "stateMutability": "view",
      "type": "function"
    },
    {
      "inputs": [
        {
          "internalType": "address",
          "name": "from",
          "type": "address"
        },
        {
          "internalType": "address",
          "name": "to",
          "type": "address"
        },
        {
          "internalType": "uint256",
          "name": "tokenId",
          "type": "uint256"
        }
      ],
      "name": "transferFrom",
      "outputs": [],
      "stateMutability": "nonpayable",
      "type": "function"
    },
    {
      "inputs": [
        {
          "internalType": "address",
          "name": "account",
          "type": "address"
        }
      ],
      "name": "unenrollAdmin",
      "outputs": [],
      "stateMutability": "nonpayable",
      "type": "function"
    }
  ],
  "bytecode": "0x60806040523480156200001157600080fd5b506040518060400160405280600c81526020017f43657274696669636174657300000000000000000000000000000000000000008152506040518060400160405280600381526020017f43454400000000000000000000000000000000000000000000000000000000008152508160019080519060200190620000969291906200046d565b508060029080519060200190620000af9291906200046d565b505050620000c76000801b336200010f60201b60201c565b620000f97fa49807205ce4d355092ef5a8a18f56e8913cf4a201fbe287825b095693c21775336200010f60201b60201c565b620001096200012560201b60201c565b62000582565b6200012182826200030a60201b60201c565b5050565b60096040518060400160405280600181526020016040518060400160405280600781526020017f416c6765627261000000000000000000000000000000000000000000000000008152508152509080600181540180825580915050600190039060005260206000209060020201600090919091909150600082015181600001556020820151816001019080519060200190620001c39291906200046d565b50505060096040518060400160405280600281526020016040518060400160405280600981526020017f436f6d70696c65727300000000000000000000000000000000000000000000008152508152509080600181540180825580915050600190039060005260206000209060020201600090919091909150600082015181600001556020820151816001019080519060200190620002649291906200046d565b50505060096040518060400160405280600381526020016040518060400160405280600b81526020017f50726f6772616d6d696e670000000000000000000000000000000000000000008152508152509080600181540180825580915050600190039060005260206000209060020201600090919091909150600082015181600001556020820151816001019080519060200190620003059291906200046d565b505050565b6200031c8282620003fb60201b60201c565b620003f757600160008084815260200190815260200160002060000160008373ffffffffffffffffffffffffffffffffffffffff1673ffffffffffffffffffffffffffffffffffffffff16815260200190815260200160002060006101000a81548160ff0219169083151502179055506200039c6200046560201b60201c565b73ffffffffffffffffffffffffffffffffffffffff168173ffffffffffffffffffffffffffffffffffffffff16837f2f8788117e7eff1d82e926ec794901d17c78024a50270940304540a733656f0d60405160405180910390a45b5050565b600080600084815260200190815260200160002060000160008373ffffffffffffffffffffffffffffffffffffffff1673ffffffffffffffffffffffffffffffffffffffff16815260200190815260200160002060009054906101000a900460ff16905092915050565b600033905090565b8280546200047b906200051d565b90600052602060002090601f0160209004810192826200049f5760008555620004eb565b82601f10620004ba57805160ff1916838001178555620004eb565b82800160010185558215620004eb579182015b82811115620004ea578251825591602001919060010190620004cd565b5b509050620004fa9190620004fe565b5090565b5b8082111562000519576000816000905550600101620004ff565b5090565b600060028204905060018216806200053657607f821691505b602082108114156200054d576200054c62000553565b5b50919050565b7f4e487b7100000000000000000000000000000000000000000000000000000000600052602260045260246000fd5b61433680620005926000396000f3fe608060405234801561001057600080fd5b50600436106101735760003560e01c806375b238fc116100de578063b88d4fde11610097578063d3c7498a11610071578063d3c7498a1461046c578063d547741f14610488578063dbf806a4146104a4578063e985e9c5146104c057610173565b8063b88d4fde14610404578063c87b56dd14610420578063cceb3f1f1461045057610173565b806375b238fc1461034257806391d148541461036057806395d89b4114610390578063a217fddf146103ae578063a22cb465146103cc578063ae1d5175146103e857610173565b80632f2ff15d116101305780632f2ff15d1461025e57806336568abe1461027a57806342842e0e14610296578063459ea1fa146102b25780636352211e146102e257806370a082311461031257610173565b806301ffc9a71461017857806306fdde03146101a8578063081812fc146101c6578063095ea7b3146101f657806323b872dd14610212578063248a9ca31461022e575b600080fd5b610192600480360381019061018d9190612e01565b6104f0565b60405161019f9190613424565b60405180910390f35b6101b0610502565b6040516101bd9190613475565b60405180910390f35b6101e060048036038101906101db9190612e53565b610594565b6040516101ed91906133bd565b60405180910390f35b610210600480360381019061020b9190612d60565b610619565b005b61022c60048036038101906102279190612b38565b610731565b005b61024860048036038101906102439190612d9c565b610791565b604051610255919061343f565b60405180910390f35b61027860048036038101906102739190612dc5565b6107b0565b005b610294600480360381019061028f9190612dc5565b6107d9565b005b6102b060048036038101906102ab9190612b38565b61085c565b005b6102cc60048036038101906102c79190612ca5565b61087c565b6040516102d991906137aa565b60405180910390f35b6102fc60048036038101906102f79190612e53565b610971565b60405161030991906133bd565b60405180910390f35b61032c60048036038101906103279190612ad3565b610a23565b60405161033991906137aa565b60405180910390f35b61034a610adb565b604051610357919061343f565b60405180910390f35b61037a60048036038101906103759190612dc5565b610aff565b6040516103879190613424565b60405180910390f35b610398610b69565b6040516103a59190613475565b60405180910390f35b6103b6610bfb565b6040516103c3919061343f565b60405180910390f35b6103e660048036038101906103e19190612c02565b610c02565b005b61040260048036038101906103fd9190612ad3565b610d83565b005b61041e60048036038101906104199190612b87565b610dc6565b005b61043a60048036038101906104359190612e53565b610e28565b6040516104479190613475565b60405180910390f35b61046a60048036038101906104659190612ad3565b610f7a565b005b61048660048036038101906104819190612cf9565b610fbd565b005b6104a2600480360381019061049d9190612dc5565b611156565b005b6104be60048036038101906104b99190612c3e565b61117f565b005b6104da60048036038101906104d59190612afc565b61141a565b6040516104e79190613424565b60405180910390f35b60006104fb826114ae565b9050919050565b60606001805461051190613ab8565b80601f016020809104026020016040519081016040528092919081815260200182805461053d90613ab8565b801561058a5780601f1061055f5761010080835404028352916020019161058a565b820191906000526020600020905b81548152906001019060200180831161056d57829003601f168201915b5050505050905090565b600061059f82611590565b6105de576040517f08c379a00000000000000000000000000000000000000000000000000000000081526004016105d5906136aa565b60405180910390fd5b6005600083815260200190815260200160002060009054906101000a900473ffffffffffffffffffffffffffffffffffffffff169050919050565b600061062482610971565b90508073ffffffffffffffffffffffffffffffffffffffff168373ffffffffffffffffffffffffffffffffffffffff161415610695576040517f08c379a000000000000000000000000000000000000000000000000000000000815260040161068c9061374a565b60405180910390fd5b8073ffffffffffffffffffffffffffffffffffffffff166106b46115fc565b73ffffffffffffffffffffffffffffffffffffffff1614806106e357506106e2816106dd6115fc565b61141a565b5b610722576040517f08c379a0000000000000000000000000000000000000000000000000000000008152600401610719906135ea565b60405180910390fd5b61072c8383611604565b505050565b61074261073c6115fc565b826116bd565b610781576040517f08c379a00000000000000000000000000000000000000000000000000000000081526004016107789061376a565b60405180910390fd5b61078c83838361179b565b505050565b6000806000838152602001908152602001600020600101549050919050565b6107b982610791565b6107ca816107c56115fc565b6119f7565b6107d48383611a94565b505050565b6107e16115fc565b73ffffffffffffffffffffffffffffffffffffffff168173ffffffffffffffffffffffffffffffffffffffff161461084e576040517f08c379a00000000000000000000000000000000000000000000000000000000081526004016108459061378a565b60405180910390fd5b6108588282611b74565b5050565b61087783838360405180602001604052806000815250610dc6565b505050565b60007fa49807205ce4d355092ef5a8a18f56e8913cf4a201fbe287825b095693c217756108b0816108ab6115fc565b6119f7565b6108ba6008611c55565b60006108c66008611c6b565b90506108d28582611c79565b6108dc8185611e47565b6109006040518060600160405280602881526020016142d960289139868387611ebb565b808573ffffffffffffffffffffffffffffffffffffffff163373ffffffffffffffffffffffffffffffffffffffff167f7dda871aa82ccfff7175043642f3d5a9ccd6b3aa7c1fba0197a8815110824f1d8760405161095e9190613475565b60405180910390a4809250505092915050565b6000806003600084815260200190815260200160002060009054906101000a900473ffffffffffffffffffffffffffffffffffffffff169050600073ffffffffffffffffffffffffffffffffffffffff168173ffffffffffffffffffffffffffffffffffffffff161415610a1a576040517f08c379a0000000000000000000000000000000000000000000000000000000008152600401610a119061362a565b60405180910390fd5b80915050919050565b60008073ffffffffffffffffffffffffffffffffffffffff168273ffffffffffffffffffffffffffffffffffffffff161415610a94576040517f08c379a0000000000000000000000000000000000000000000000000000000008152600401610a8b9061360a565b60405180910390fd5b600460008373ffffffffffffffffffffffffffffffffffffffff1673ffffffffffffffffffffffffffffffffffffffff168152602001908152602001600020549050919050565b7fa49807205ce4d355092ef5a8a18f56e8913cf4a201fbe287825b095693c2177581565b600080600084815260200190815260200160002060000160008373ffffffffffffffffffffffffffffffffffffffff1673ffffffffffffffffffffffffffffffffffffffff16815260200190815260200160002060009054906101000a900460ff16905092915050565b606060028054610b7890613ab8565b80601f0160208091040260200160405190810160405280929190818152602001828054610ba490613ab8565b8015610bf15780601f10610bc657610100808354040283529160200191610bf1565b820191906000526020600020905b815481529060010190602001808311610bd457829003601f168201915b5050505050905090565b6000801b81565b610c0a6115fc565b73ffffffffffffffffffffffffffffffffffffffff168273ffffffffffffffffffffffffffffffffffffffff161415610c78576040517f08c379a0000000000000000000000000000000000000000000000000000000008152600401610c6f906135aa565b60405180910390fd5b8060066000610c856115fc565b73ffffffffffffffffffffffffffffffffffffffff1673ffffffffffffffffffffffffffffffffffffffff16815260200190815260200160002060008473ffffffffffffffffffffffffffffffffffffffff1673ffffffffffffffffffffffffffffffffffffffff16815260200190815260200160002060006101000a81548160ff0219169083151502179055508173ffffffffffffffffffffffffffffffffffffffff16610d326115fc565b73ffffffffffffffffffffffffffffffffffffffff167f17307eab39ab6107e8899845ad3d59bd9653f200f220920489ca2b5937696c3183604051610d779190613424565b60405180910390a35050565b6000801b610d9881610d936115fc565b6119f7565b610dc27fa49807205ce4d355092ef5a8a18f56e8913cf4a201fbe287825b095693c21775836107b0565b5050565b610dd7610dd16115fc565b836116bd565b610e16576040517f08c379a0000000000000000000000000000000000000000000000000000000008152600401610e0d9061376a565b60405180910390fd5b610e2284848484611f5d565b50505050565b6060610e3382611590565b610e72576040517f08c379a0000000000000000000000000000000000000000000000000000000008152600401610e699061368a565b60405180910390fd5b6000600760008481526020019081526020016000208054610e9290613ab8565b80601f0160208091040260200160405190810160405280929190818152602001828054610ebe90613ab8565b8015610f0b5780601f10610ee057610100808354040283529160200191610f0b565b820191906000526020600020905b815481529060010190602001808311610eee57829003601f168201915b505050505090506000610f1c611fb9565b9050600081511415610f32578192505050610f75565b600082511115610f67578082604051602001610f4f92919061335f565b60405160208183030381529060405292505050610f75565b610f7084611fd0565b925050505b919050565b6000801b610f8f81610f8a6115fc565b6119f7565b610fb97fa49807205ce4d355092ef5a8a18f56e8913cf4a201fbe287825b095693c2177583611156565b5050565b7fa49807205ce4d355092ef5a8a18f56e8913cf4a201fbe287825b095693c21775610fef81610fea6115fc565b6119f7565b600a60008573ffffffffffffffffffffffffffffffffffffffff1673ffffffffffffffffffffffffffffffffffffffff16815260200190815260200160002060030160009054906101000a900460ff161561107f576040517f08c379a00000000000000000000000000000000000000000000000000000000081526004016110769061350a565b60405180910390fd5b6000600a60008673ffffffffffffffffffffffffffffffffffffffff1673ffffffffffffffffffffffffffffffffffffffff1681526020019081526020016000209050838160000190805190602001906110da9291906128cd565b5082816001018190555060018160030160006101000a81548160ff0219169083151502179055508473ffffffffffffffffffffffffffffffffffffffff167f546ed786c8923815c5efd04ecbc2b720211ff8b4998a8971c38897c3e75d1996856040516111479190613475565b60405180910390a25050505050565b61115f82610791565b6111708161116b6115fc565b6119f7565b61117a8383611b74565b505050565b7fa49807205ce4d355092ef5a8a18f56e8913cf4a201fbe287825b095693c217756111b1816111ac6115fc565b6119f7565b600a60008573ffffffffffffffffffffffffffffffffffffffff1673ffffffffffffffffffffffffffffffffffffffff16815260200190815260200160002060030160009054906101000a900460ff16611240576040517f08c379a00000000000000000000000000000000000000000000000000000000081526004016112379061352a565b60405180910390fd5b60008313611283576040517f08c379a000000000000000000000000000000000000000000000000000000000815260040161127a9061372a565b60405180910390fd5b600a83126112c6576040517f08c379a00000000000000000000000000000000000000000000000000000000081526004016112bd9061372a565b60405180910390fd5b60006112d183612077565b90506000811415611317576040517f08c379a000000000000000000000000000000000000000000000000000000000815260040161130e906136ca565b60405180910390fd5b6000604051806040016040528085815260200186815250905080600a60008873ffffffffffffffffffffffffffffffffffffffff1673ffffffffffffffffffffffffffffffffffffffff168152602001908152602001600020600201600084815260200190815260200160002060008201518160000190805190602001906113a09291906128cd565b5060208201518160010155905050836040516113bc9190613348565b60405180910390208673ffffffffffffffffffffffffffffffffffffffff167fc76c007f1548f67e6861f28ef70478b28966441b2ea816e4b78bbe24a31348a58760405161140a919061345a565b60405180910390a3505050505050565b6000600660008473ffffffffffffffffffffffffffffffffffffffff1673ffffffffffffffffffffffffffffffffffffffff16815260200190815260200160002060008373ffffffffffffffffffffffffffffffffffffffff1673ffffffffffffffffffffffffffffffffffffffff16815260200190815260200160002060009054906101000a900460ff16905092915050565b60007f80ac58cd000000000000000000000000000000000000000000000000000000007bffffffffffffffffffffffffffffffffffffffffffffffffffffffff1916827bffffffffffffffffffffffffffffffffffffffffffffffffffffffff1916148061157957507f5b5e139f000000000000000000000000000000000000000000000000000000007bffffffffffffffffffffffffffffffffffffffffffffffffffffffff1916827bffffffffffffffffffffffffffffffffffffffffffffffffffffffff1916145b8061158957506115888261216a565b5b9050919050565b60008073ffffffffffffffffffffffffffffffffffffffff166003600084815260200190815260200160002060009054906101000a900473ffffffffffffffffffffffffffffffffffffffff1673ffffffffffffffffffffffffffffffffffffffff1614159050919050565b600033905090565b816005600083815260200190815260200160002060006101000a81548173ffffffffffffffffffffffffffffffffffffffff021916908373ffffffffffffffffffffffffffffffffffffffff160217905550808273ffffffffffffffffffffffffffffffffffffffff1661167783610971565b73ffffffffffffffffffffffffffffffffffffffff167f8c5be1e5ebec7d5bd14f71427d1e84f3dd0314c0f7b2291e5b200ac8c7c3b92560405160405180910390a45050565b60006116c882611590565b611707576040517f08c379a00000000000000000000000000000000000000000000000000000000081526004016116fe906135ca565b60405180910390fd5b600061171283610971565b90508073ffffffffffffffffffffffffffffffffffffffff168473ffffffffffffffffffffffffffffffffffffffff16148061178157508373ffffffffffffffffffffffffffffffffffffffff1661176984610594565b73ffffffffffffffffffffffffffffffffffffffff16145b806117925750611791818561141a565b5b91505092915050565b8273ffffffffffffffffffffffffffffffffffffffff166117bb82610971565b73ffffffffffffffffffffffffffffffffffffffff1614611811576040517f08c379a0000000000000000000000000000000000000000000000000000000008152600401611808906136ea565b60405180910390fd5b600073ffffffffffffffffffffffffffffffffffffffff168273ffffffffffffffffffffffffffffffffffffffff161415611881576040517f08c379a00000000000000000000000000000000000000000000000000000000081526004016118789061358a565b60405180910390fd5b61188c8383836121e4565b611897600082611604565b6001600460008573ffffffffffffffffffffffffffffffffffffffff1673ffffffffffffffffffffffffffffffffffffffff16815260200190815260200160002060008282546118e79190613990565b925050819055506001600460008473ffffffffffffffffffffffffffffffffffffffff1673ffffffffffffffffffffffffffffffffffffffff168152602001908152602001600020600082825461193e91906138af565b92505081905550816003600083815260200190815260200160002060006101000a81548173ffffffffffffffffffffffffffffffffffffffff021916908373ffffffffffffffffffffffffffffffffffffffff160217905550808273ffffffffffffffffffffffffffffffffffffffff168473ffffffffffffffffffffffffffffffffffffffff167fddf252ad1be2c89b69c2b068fc378daa952ba7f163c4a11628f55a4df523b3ef60405160405180910390a4505050565b611a018282610aff565b611a9057611a268173ffffffffffffffffffffffffffffffffffffffff1660146121e9565b611a348360001c60206121e9565b604051602001611a45929190613383565b6040516020818303038152906040526040517f08c379a0000000000000000000000000000000000000000000000000000000008152600401611a879190613475565b60405180910390fd5b5050565b611a9e8282610aff565b611b7057600160008084815260200190815260200160002060000160008373ffffffffffffffffffffffffffffffffffffffff1673ffffffffffffffffffffffffffffffffffffffff16815260200190815260200160002060006101000a81548160ff021916908315150217905550611b156115fc565b73ffffffffffffffffffffffffffffffffffffffff168173ffffffffffffffffffffffffffffffffffffffff16837f2f8788117e7eff1d82e926ec794901d17c78024a50270940304540a733656f0d60405160405180910390a45b5050565b611b7e8282610aff565b15611c5157600080600084815260200190815260200160002060000160008373ffffffffffffffffffffffffffffffffffffffff1673ffffffffffffffffffffffffffffffffffffffff16815260200190815260200160002060006101000a81548160ff021916908315150217905550611bf66115fc565b73ffffffffffffffffffffffffffffffffffffffff168173ffffffffffffffffffffffffffffffffffffffff16837ff6391f5c32d9c69d2a47ea670b442974b53935d1edc7fd64eb21e047a839171b60405160405180910390a45b5050565b6001816000016000828254019250508190555050565b600081600001549050919050565b600073ffffffffffffffffffffffffffffffffffffffff168273ffffffffffffffffffffffffffffffffffffffff161415611ce9576040517f08c379a0000000000000000000000000000000000000000000000000000000008152600401611ce09061366a565b60405180910390fd5b611cf281611590565b15611d32576040517f08c379a0000000000000000000000000000000000000000000000000000000008152600401611d299061356a565b60405180910390fd5b611d3e600083836121e4565b6001600460008473ffffffffffffffffffffffffffffffffffffffff1673ffffffffffffffffffffffffffffffffffffffff1681526020019081526020016000206000828254611d8e91906138af565b92505081905550816003600083815260200190815260200160002060006101000a81548173ffffffffffffffffffffffffffffffffffffffff021916908373ffffffffffffffffffffffffffffffffffffffff160217905550808273ffffffffffffffffffffffffffffffffffffffff16600073ffffffffffffffffffffffffffffffffffffffff167fddf252ad1be2c89b69c2b068fc378daa952ba7f163c4a11628f55a4df523b3ef60405160405180910390a45050565b611e5082611590565b611e8f576040517f08c379a0000000000000000000000000000000000000000000000000000000008152600401611e869061364a565b60405180910390fd5b80600760008481526020019081526020016000209080519060200190611eb69291906128cd565b505050565b611f5784848484604051602401611ed59493929190613497565b6040516020818303038152906040527f4c55f234000000000000000000000000000000000000000000000000000000007bffffffffffffffffffffffffffffffffffffffffffffffffffffffff19166020820180517bffffffffffffffffffffffffffffffffffffffffffffffffffffffff83818316178352505050506124e3565b50505050565b611f6884848461179b565b611f748484848461250c565b611fb3576040517f08c379a0000000000000000000000000000000000000000000000000000000008152600401611faa9061354a565b60405180910390fd5b50505050565b606060405180602001604052806000815250905090565b6060611fdb82611590565b61201a576040517f08c379a00000000000000000000000000000000000000000000000000000000081526004016120119061370a565b60405180910390fd5b6000612024611fb9565b90506000815111612044576040518060200160405280600081525061206f565b8061204e846126a3565b60405160200161205f92919061335f565b6040516020818303038152906040525b915050919050565b600080600090505b60098054905081101561215f578280519060200120600982815481106120ce577f4e487b7100000000000000000000000000000000000000000000000000000000600052603260045260246000fd5b90600052602060002090600202016001016040516120ec9190613331565b6040518091039020141561214e5760098181548110612134577f4e487b7100000000000000000000000000000000000000000000000000000000600052603260045260246000fd5b906000526020600020906002020160000154915050612165565b8061215890613b1b565b905061207f565b50600090505b919050565b60007f7965db0b000000000000000000000000000000000000000000000000000000007bffffffffffffffffffffffffffffffffffffffffffffffffffffffff1916827bffffffffffffffffffffffffffffffffffffffffffffffffffffffff191614806121dd57506121dc82612850565b5b9050919050565b505050565b6060600060028360026121fc9190613936565b61220691906138af565b67ffffffffffffffff811115612245577f4e487b7100000000000000000000000000000000000000000000000000000000600052604160045260246000fd5b6040519080825280601f01601f1916602001820160405280156122775781602001600182028036833780820191505090505b5090507f3000000000000000000000000000000000000000000000000000000000000000816000815181106122d5577f4e487b7100000000000000000000000000000000000000000000000000000000600052603260045260246000fd5b60200101907effffffffffffffffffffffffffffffffffffffffffffffffffffffffffffff1916908160001a9053507f78000000000000000000000000000000000000000000000000000000000000008160018151811061235f577f4e487b7100000000000000000000000000000000000000000000000000000000600052603260045260246000fd5b60200101907effffffffffffffffffffffffffffffffffffffffffffffffffffffffffffff1916908160001a9053506000600184600261239f9190613936565b6123a991906138af565b90505b6001811115612495577f3031323334353637383961626364656600000000000000000000000000000000600f861660108110612411577f4e487b7100000000000000000000000000000000000000000000000000000000600052603260045260246000fd5b1a60f81b82828151811061244e577f4e487b7100000000000000000000000000000000000000000000000000000000600052603260045260246000fd5b60200101907effffffffffffffffffffffffffffffffffffffffffffffffffffffffffffff1916908160001a905350600485901c94508061248e90613a8e565b90506123ac565b50600084146124d9576040517f08c379a00000000000000000000000000000000000000000000000000000000081526004016124d0906134ea565b60405180910390fd5b8091505092915050565b60008151905060006a636f6e736f6c652e6c6f679050602083016000808483855afa5050505050565b600061252d8473ffffffffffffffffffffffffffffffffffffffff166128ba565b15612696578373ffffffffffffffffffffffffffffffffffffffff1663150b7a026125566115fc565b8786866040518563ffffffff1660e01b815260040161257894939291906133d8565b602060405180830381600087803b15801561259257600080fd5b505af19250505080156125c357506040513d601f19601f820116820180604052508101906125c09190612e2a565b60015b612646573d80600081146125f3576040519150601f19603f3d011682016040523d82523d6000602084013e6125f8565b606091505b5060008151141561263e576040517f08c379a00000000000000000000000000000000000000000000000000000000081526004016126359061354a565b60405180910390fd5b805181602001fd5b63150b7a0260e01b7bffffffffffffffffffffffffffffffffffffffffffffffffffffffff1916817bffffffffffffffffffffffffffffffffffffffffffffffffffffffff19161491505061269b565b600190505b949350505050565b606060008214156126eb576040518060400160405280600181526020017f3000000000000000000000000000000000000000000000000000000000000000815250905061284b565b600082905060005b6000821461271d57808061270690613b1b565b915050600a826127169190613905565b91506126f3565b60008167ffffffffffffffff81111561275f577f4e487b7100000000000000000000000000000000000000000000000000000000600052604160045260246000fd5b6040519080825280601f01601f1916602001820160405280156127915781602001600182028036833780820191505090505b5090505b60008514612844576001826127aa9190613990565b9150600a856127b99190613b64565b60306127c591906138af565b60f81b818381518110612801577f4e487b7100000000000000000000000000000000000000000000000000000000600052603260045260246000fd5b60200101907effffffffffffffffffffffffffffffffffffffffffffffffffffffffffffff1916908160001a905350600a8561283d9190613905565b9450612795565b8093505050505b919050565b60007f01ffc9a7000000000000000000000000000000000000000000000000000000007bffffffffffffffffffffffffffffffffffffffffffffffffffffffff1916827bffffffffffffffffffffffffffffffffffffffffffffffffffffffff1916149050919050565b600080823b905060008111915050919050565b8280546128d990613ab8565b90600052602060002090601f0160209004810192826128fb5760008555612942565b82601f1061291457805160ff1916838001178555612942565b82800160010185558215612942579182015b82811115612941578251825591602001919060010190612926565b5b50905061294f9190612953565b5090565b5b8082111561296c576000816000905550600101612954565b5090565b600061298361297e846137ea565b6137c5565b90508281526020810184848401111561299b57600080fd5b6129a6848285613a4c565b509392505050565b60006129c16129bc8461381b565b6137c5565b9050828152602081018484840111156129d957600080fd5b6129e4848285613a4c565b509392505050565b6000813590506129fb8161424e565b92915050565b600081359050612a1081614265565b92915050565b600081359050612a258161427c565b92915050565b600081359050612a3a81614293565b92915050565b600081519050612a4f81614293565b92915050565b600082601f830112612a6657600080fd5b8135612a76848260208601612970565b91505092915050565b600081359050612a8e816142aa565b92915050565b600082601f830112612aa557600080fd5b8135612ab58482602086016129ae565b91505092915050565b600081359050612acd816142c1565b92915050565b600060208284031215612ae557600080fd5b6000612af3848285016129ec565b91505092915050565b60008060408385031215612b0f57600080fd5b6000612b1d858286016129ec565b9250506020612b2e858286016129ec565b9150509250929050565b600080600060608486031215612b4d57600080fd5b6000612b5b868287016129ec565b9350506020612b6c868287016129ec565b9250506040612b7d86828701612abe565b9150509250925092565b60008060008060808587031215612b9d57600080fd5b6000612bab878288016129ec565b9450506020612bbc878288016129ec565b9350506040612bcd87828801612abe565b925050606085013567ffffffffffffffff811115612bea57600080fd5b612bf687828801612a55565b91505092959194509250565b60008060408385031215612c1557600080fd5b6000612c23858286016129ec565b9250506020612c3485828601612a01565b9150509250929050565b600080600060608486031215612c5357600080fd5b6000612c61868287016129ec565b9350506020612c7286828701612a7f565b925050604084013567ffffffffffffffff811115612c8f57600080fd5b612c9b86828701612a94565b9150509250925092565b60008060408385031215612cb857600080fd5b6000612cc6858286016129ec565b925050602083013567ffffffffffffffff811115612ce357600080fd5b612cef85828601612a94565b9150509250929050565b600080600060608486031215612d0e57600080fd5b6000612d1c868287016129ec565b935050602084013567ffffffffffffffff811115612d3957600080fd5b612d4586828701612a94565b9250506040612d5686828701612abe565b9150509250925092565b60008060408385031215612d7357600080fd5b6000612d81858286016129ec565b9250506020612d9285828601612abe565b9150509250929050565b600060208284031215612dae57600080fd5b6000612dbc84828501612a16565b91505092915050565b60008060408385031215612dd857600080fd5b6000612de685828601612a16565b9250506020612df7858286016129ec565b9150509250929050565b600060208284031215612e1357600080fd5b6000612e2184828501612a2b565b91505092915050565b600060208284031215612e3c57600080fd5b6000612e4a84828501612a40565b91505092915050565b600060208284031215612e6557600080fd5b6000612e7384828501612abe565b91505092915050565b612e85816139c4565b82525050565b612e94816139d6565b82525050565b612ea3816139e2565b82525050565b6000612eb482613861565b612ebe8185613877565b9350612ece818560208601613a5b565b612ed781613c51565b840191505092915050565b60008154612eef81613ab8565b612ef98186613888565b94506001821660008114612f145760018114612f2557612f58565b60ff19831686528186019350612f58565b612f2e8561384c565b60005b83811015612f5057815481890152600182019150602081019050612f31565b838801955050505b50505092915050565b612f6a81613a18565b82525050565b6000612f7b8261386c565b612f858185613893565b9350612f95818560208601613a5b565b612f9e81613c51565b840191505092915050565b6000612fb48261386c565b612fbe81856138a4565b9350612fce818560208601613a5b565b80840191505092915050565b6000612fe7602083613893565b9150612ff282613c62565b602082019050919050565b600061300a601783613893565b915061301582613c8b565b602082019050919050565b600061302d601983613893565b915061303882613cb4565b602082019050919050565b6000613050603283613893565b915061305b82613cdd565b604082019050919050565b6000613073601c83613893565b915061307e82613d2c565b602082019050919050565b6000613096602483613893565b91506130a182613d55565b604082019050919050565b60006130b9601983613893565b91506130c482613da4565b602082019050919050565b60006130dc602c83613893565b91506130e782613dcd565b604082019050919050565b60006130ff603883613893565b915061310a82613e1c565b604082019050919050565b6000613122602a83613893565b915061312d82613e6b565b604082019050919050565b6000613145602983613893565b915061315082613eba565b604082019050919050565b6000613168602e83613893565b915061317382613f09565b604082019050919050565b600061318b602083613893565b915061319682613f58565b602082019050919050565b60006131ae603183613893565b91506131b982613f81565b604082019050919050565b60006131d1602c83613893565b91506131dc82613fd0565b604082019050919050565b60006131f4601083613893565b91506131ff8261401f565b602082019050919050565b6000613217602983613893565b915061322282614048565b604082019050919050565b600061323a602f83613893565b915061324582614097565b604082019050919050565b600061325d600e83613893565b9150613268826140e6565b602082019050919050565b6000613280602183613893565b915061328b8261410f565b604082019050919050565b60006132a3603183613893565b91506132ae8261415e565b604082019050919050565b60006132c66017836138a4565b91506132d1826141ad565b601782019050919050565b60006132e96011836138a4565b91506132f4826141d6565b601182019050919050565b600061330c602f83613893565b9150613317826141ff565b604082019050919050565b61332b81613a42565b82525050565b600061333d8284612ee2565b915081905092915050565b60006133548284612fa9565b915081905092915050565b600061336b8285612fa9565b91506133778284612fa9565b91508190509392505050565b600061338e826132b9565b915061339a8285612fa9565b91506133a5826132dc565b91506133b18284612fa9565b91508190509392505050565b60006020820190506133d26000830184612e7c565b92915050565b60006080820190506133ed6000830187612e7c565b6133fa6020830186612e7c565b6134076040830185613322565b81810360608301526134198184612ea9565b905095945050505050565b60006020820190506134396000830184612e8b565b92915050565b60006020820190506134546000830184612e9a565b92915050565b600060208201905061346f6000830184612f61565b92915050565b6000602082019050818103600083015261348f8184612f70565b905092915050565b600060808201905081810360008301526134b18187612f70565b90506134c06020830186612e7c565b6134cd6040830185613322565b81810360608301526134df8184612f70565b905095945050505050565b6000602082019050818103600083015261350381612fda565b9050919050565b6000602082019050818103600083015261352381612ffd565b9050919050565b6000602082019050818103600083015261354381613020565b9050919050565b6000602082019050818103600083015261356381613043565b9050919050565b6000602082019050818103600083015261358381613066565b9050919050565b600060208201905081810360008301526135a381613089565b9050919050565b600060208201905081810360008301526135c3816130ac565b9050919050565b600060208201905081810360008301526135e3816130cf565b9050919050565b60006020820190508181036000830152613603816130f2565b9050919050565b6000602082019050818103600083015261362381613115565b9050919050565b6000602082019050818103600083015261364381613138565b9050919050565b600060208201905081810360008301526136638161315b565b9050919050565b600060208201905081810360008301526136838161317e565b9050919050565b600060208201905081810360008301526136a3816131a1565b9050919050565b600060208201905081810360008301526136c3816131c4565b9050919050565b600060208201905081810360008301526136e3816131e7565b9050919050565b600060208201905081810360008301526137038161320a565b9050919050565b600060208201905081810360008301526137238161322d565b9050919050565b6000602082019050818103600083015261374381613250565b9050919050565b6000602082019050818103600083015261376381613273565b9050919050565b6000602082019050818103600083015261378381613296565b9050919050565b600060208201905081810360008301526137a3816132ff565b9050919050565b60006020820190506137bf6000830184613322565b92915050565b60006137cf6137e0565b90506137db8282613aea565b919050565b6000604051905090565b600067ffffffffffffffff82111561380557613804613c22565b5b61380e82613c51565b9050602081019050919050565b600067ffffffffffffffff82111561383657613835613c22565b5b61383f82613c51565b9050602081019050919050565b60008190508160005260206000209050919050565b600081519050919050565b600081519050919050565b600082825260208201905092915050565b600081905092915050565b600082825260208201905092915050565b600081905092915050565b60006138ba82613a42565b91506138c583613a42565b9250827fffffffffffffffffffffffffffffffffffffffffffffffffffffffffffffffff038211156138fa576138f9613b95565b5b828201905092915050565b600061391082613a42565b915061391b83613a42565b92508261392b5761392a613bc4565b5b828204905092915050565b600061394182613a42565b915061394c83613a42565b9250817fffffffffffffffffffffffffffffffffffffffffffffffffffffffffffffffff048311821515161561398557613984613b95565b5b828202905092915050565b600061399b82613a42565b91506139a683613a42565b9250828210156139b9576139b8613b95565b5b828203905092915050565b60006139cf82613a22565b9050919050565b60008115159050919050565b6000819050919050565b60007fffffffff0000000000000000000000000000000000000000000000000000000082169050919050565b6000819050919050565b600073ffffffffffffffffffffffffffffffffffffffff82169050919050565b6000819050919050565b82818337600083830152505050565b60005b83811015613a79578082015181840152602081019050613a5e565b83811115613a88576000848401525b50505050565b6000613a9982613a42565b91506000821415613aad57613aac613b95565b5b600182039050919050565b60006002820490506001821680613ad057607f821691505b60208210811415613ae457613ae3613bf3565b5b50919050565b613af382613c51565b810181811067ffffffffffffffff82111715613b1257613b11613c22565b5b80604052505050565b6000613b2682613a42565b91507fffffffffffffffffffffffffffffffffffffffffffffffffffffffffffffffff821415613b5957613b58613b95565b5b600182019050919050565b6000613b6f82613a42565b9150613b7a83613a42565b925082613b8a57613b89613bc4565b5b828206905092915050565b7f4e487b7100000000000000000000000000000000000000000000000000000000600052601160045260246000fd5b7f4e487b7100000000000000000000000000000000000000000000000000000000600052601260045260246000fd5b7f4e487b7100000000000000000000000000000000000000000000000000000000600052602260045260246000fd5b7f4e487b7100000000000000000000000000000000000000000000000000000000600052604160045260246000fd5b6000601f19601f8301169050919050565b7f537472696e67733a20686578206c656e67746820696e73756666696369656e74600082015250565b7f53747564656e7420616c7265616479206578697374732e000000000000000000600082015250565b7f41646472657373206973206e6f7420612073747564656e742e00000000000000600082015250565b7f4552433732313a207472616e7366657220746f206e6f6e20455243373231526560008201527f63656976657220696d706c656d656e7465720000000000000000000000000000602082015250565b7f4552433732313a20746f6b656e20616c7265616479206d696e74656400000000600082015250565b7f4552433732313a207472616e7366657220746f20746865207a65726f2061646460008201527f7265737300000000000000000000000000000000000000000000000000000000602082015250565b7f4552433732313a20617070726f766520746f2063616c6c657200000000000000600082015250565b7f4552433732313a206f70657261746f7220717565727920666f72206e6f6e657860008201527f697374656e7420746f6b656e0000000000000000000000000000000000000000602082015250565b7f4552433732313a20617070726f76652063616c6c6572206973206e6f74206f7760008201527f6e6572206e6f7220617070726f76656420666f7220616c6c0000000000000000602082015250565b7f4552433732313a2062616c616e636520717565727920666f7220746865207a6560008201527f726f206164647265737300000000000000000000000000000000000000000000602082015250565b7f4552433732313a206f776e657220717565727920666f72206e6f6e657869737460008201527f656e7420746f6b656e0000000000000000000000000000000000000000000000602082015250565b7f45524337323155524953746f726167653a2055524920736574206f66206e6f6e60008201527f6578697374656e7420746f6b656e000000000000000000000000000000000000602082015250565b7f4552433732313a206d696e7420746f20746865207a65726f2061646472657373600082015250565b7f45524337323155524953746f726167653a2055524920717565727920666f722060008201527f6e6f6e6578697374656e7420746f6b656e000000000000000000000000000000602082015250565b7f4552433732313a20617070726f76656420717565727920666f72206e6f6e657860008201527f697374656e7420746f6b656e0000000000000000000000000000000000000000602082015250565b7f496e76616c6964207375626a6563742e00000000000000000000000000000000600082015250565b7f4552433732313a207472616e73666572206f6620746f6b656e2074686174206960008201527f73206e6f74206f776e0000000000000000000000000000000000000000000000602082015250565b7f4552433732314d657461646174613a2055524920717565727920666f72206e6f60008201527f6e6578697374656e7420746f6b656e0000000000000000000000000000000000602082015250565b7f496e76616c69642047726164652e000000000000000000000000000000000000600082015250565b7f4552433732313a20617070726f76616c20746f2063757272656e74206f776e6560008201527f7200000000000000000000000000000000000000000000000000000000000000602082015250565b7f4552433732313a207472616e736665722063616c6c6572206973206e6f74206f60008201527f776e6572206e6f7220617070726f766564000000000000000000000000000000602082015250565b7f416363657373436f6e74726f6c3a206163636f756e7420000000000000000000600082015250565b7f206973206d697373696e6720726f6c6520000000000000000000000000000000600082015250565b7f416363657373436f6e74726f6c3a2063616e206f6e6c792072656e6f756e636560008201527f20726f6c657320666f722073656c660000000000000000000000000000000000602082015250565b614257816139c4565b811461426257600080fd5b50565b61426e816139d6565b811461427957600080fd5b50565b614285816139e2565b811461429057600080fd5b50565b61429c816139ec565b81146142a757600080fd5b50565b6142b381613a18565b81146142be57600080fd5b50565b6142ca81613a42565b81146142d557600080fd5b5056fe4e46542067656e65726174656420666f722025732020232573207769746820616e20757269202573a2646970667358221220af0e0b6151df206e667aff82de80a5395036530a6638cdb00ce322ac9687431a64736f6c63430008040033",
  "linkReferences": {},
  "deployedLinkReferences": {}
}